{
  "_format": "hh-sol-artifact-1",
  "contractName": "BenefitLockAndReleaseNoDeadline",
  "sourceName": "contracts/BenefitLockAndReleaseNoDeadline.sol",
  "abi": [
    {
      "inputs": [],
      "stateMutability": "nonpayable",
      "type": "constructor"
    },
    {
      "anonymous": false,
      "inputs": [
        {
          "indexed": true,
          "internalType": "address",
          "name": "user",
          "type": "address"
        },
        {
          "indexed": false,
          "internalType": "uint256",
          "name": "amount",
          "type": "uint256"
        }
      ],
      "name": "FundsWithdrawn",
      "type": "event"
    },
    {
      "anonymous": false,
      "inputs": [
        {
          "indexed": true,
          "internalType": "address",
          "name": "user",
          "type": "address"
        },
        {
          "indexed": false,
          "internalType": "uint256",
          "name": "amount",
          "type": "uint256"
        }
      ],
      "name": "GoalStarted",
      "type": "event"
    },
    {
      "anonymous": false,
      "inputs": [
        {
          "indexed": true,
          "internalType": "address",
          "name": "user",
          "type": "address"
        }
      ],
      "name": "GoalValidated",
      "type": "event"
    },
    {
      "inputs": [
        {
          "internalType": "address",
          "name": "",
          "type": "address"
        }
      ],
      "name": "goals",
      "outputs": [
        {
          "internalType": "address",
          "name": "user",
          "type": "address"
        },
        {
          "internalType": "uint256",
          "name": "amount",
          "type": "uint256"
        },
        {
          "internalType": "bool",
          "name": "validated",
          "type": "bool"
        },
        {
          "internalType": "bool",
          "name": "withdrawn",
          "type": "bool"
        }
      ],
      "stateMutability": "view",
      "type": "function"
    },
    {
      "inputs": [],
      "name": "owner",
      "outputs": [
        {
          "internalType": "address",
          "name": "",
          "type": "address"
        }
      ],
      "stateMutability": "view",
      "type": "function"
    },
    {
      "inputs": [],
      "name": "startGoal",
      "outputs": [],
      "stateMutability": "payable",
      "type": "function"
    },
    {
      "inputs": [
        {
          "internalType": "address",
          "name": "user",
          "type": "address"
        }
      ],
      "name": "validateGoal",
      "outputs": [],
      "stateMutability": "nonpayable",
      "type": "function"
    },
    {
      "inputs": [],
      "name": "withdraw",
      "outputs": [],
      "stateMutability": "nonpayable",
      "type": "function"
    }
  ],
  "bytecode": "0x6080604052348015600f57600080fd5b5033600160006101000a81548173ffffffffffffffffffffffffffffffffffffffff021916908373ffffffffffffffffffffffffffffffffffffffff160217905550610c73806100606000396000f3fe60806040526004361061004a5760003560e01c80631a02859f1461004f5780633ccfd60b1461008f5780636c26a77d146100a65780638da5cb5b146100cf578063cec6db15146100fa575b600080fd5b34801561005b57600080fd5b50610076600480360381019061007191906107e1565b610104565b6040516100869493929190610851565b60405180910390f35b34801561009b57600080fd5b506100a461016e565b005b3480156100b257600080fd5b506100cd60048036038101906100c891906107e1565b610363565b005b3480156100db57600080fd5b506100e4610532565b6040516100f19190610896565b60405180910390f35b610102610558565b005b60006020528060005260406000206000915090508060000160009054906101000a900473ffffffffffffffffffffffffffffffffffffffff16908060010154908060020160009054906101000a900460ff16908060020160019054906101000a900460ff16905084565b60008060003373ffffffffffffffffffffffffffffffffffffffff1673ffffffffffffffffffffffffffffffffffffffff168152602001908152602001600020905060008160010154116101f7576040517f08c379a00000000000000000000000000000000000000000000000000000000081526004016101ee9061090e565b60405180910390fd5b8060020160009054906101000a900460ff16610248576040517f08c379a000000000000000000000000000000000000000000000000000000000815260040161023f9061097a565b60405180910390fd5b8060020160019054906101000a900460ff161561029a576040517f08c379a0000000000000000000000000000000000000000000000000000000008152600401610291906109e6565b60405180910390fd5b60018160020160016101000a81548160ff021916908315150217905550600081600101549050600082600101819055503373ffffffffffffffffffffffffffffffffffffffff166108fc829081150290604051600060405180830381858888f19350505050158015610310573d6000803e3d6000fd5b503373ffffffffffffffffffffffffffffffffffffffff167feaff4b37086828766ad3268786972c0cd24259d4c87a80f9d3963a3c3d999b0d826040516103579190610a06565b60405180910390a25050565b600160009054906101000a900473ffffffffffffffffffffffffffffffffffffffff1673ffffffffffffffffffffffffffffffffffffffff163373ffffffffffffffffffffffffffffffffffffffff16146103f3576040517f08c379a00000000000000000000000000000000000000000000000000000000081526004016103ea90610a6d565b60405180910390fd5b60008060008373ffffffffffffffffffffffffffffffffffffffff1673ffffffffffffffffffffffffffffffffffffffff1681526020019081526020016000209050600081600101541161047c576040517f08c379a000000000000000000000000000000000000000000000000000000000815260040161047390610ad9565b60405180910390fd5b8060020160009054906101000a900460ff16156104ce576040517f08c379a00000000000000000000000000000000000000000000000000000000081526004016104c590610b45565b60405180910390fd5b60018160020160006101000a81548160ff0219169083151502179055508173ffffffffffffffffffffffffffffffffffffffff167f71473d1653588d19cfe87d11e2f45f203f2752bf8710f06492ccda9672d9a69460405160405180910390a25050565b600160009054906101000a900473ffffffffffffffffffffffffffffffffffffffff1681565b60008060003373ffffffffffffffffffffffffffffffffffffffff1673ffffffffffffffffffffffffffffffffffffffff16815260200190815260200160002060010154146105dc576040517f08c379a00000000000000000000000000000000000000000000000000000000081526004016105d390610bb1565b60405180910390fd5b6000341161061f576040517f08c379a000000000000000000000000000000000000000000000000000000000815260040161061690610c1d565b60405180910390fd5b60405180608001604052803373ffffffffffffffffffffffffffffffffffffffff168152602001348152602001600015158152602001600015158152506000803373ffffffffffffffffffffffffffffffffffffffff1673ffffffffffffffffffffffffffffffffffffffff16815260200190815260200160002060008201518160000160006101000a81548173ffffffffffffffffffffffffffffffffffffffff021916908373ffffffffffffffffffffffffffffffffffffffff1602179055506020820151816001015560408201518160020160006101000a81548160ff02191690831515021790555060608201518160020160016101000a81548160ff0219169083151502179055509050503373ffffffffffffffffffffffffffffffffffffffff167f7281927be9a5361e054448d6ab2d64d11cc668540ba6f06fe88576b56aa8cba4346040516107749190610a06565b60405180910390a2565b600080fd5b600073ffffffffffffffffffffffffffffffffffffffff82169050919050565b60006107ae82610783565b9050919050565b6107be816107a3565b81146107c957600080fd5b50565b6000813590506107db816107b5565b92915050565b6000602082840312156107f7576107f661077e565b5b6000610805848285016107cc565b91505092915050565b610817816107a3565b82525050565b6000819050919050565b6108308161081d565b82525050565b60008115159050919050565b61084b81610836565b82525050565b6000608082019050610866600083018761080e565b6108736020830186610827565b6108806040830185610842565b61088d6060830184610842565b95945050505050565b60006020820190506108ab600083018461080e565b92915050565b600082825260208201905092915050565b7f4e6f2066756e6473000000000000000000000000000000000000000000000000600082015250565b60006108f86008836108b1565b9150610903826108c2565b602082019050919050565b60006020820190508181036000830152610927816108eb565b9050919050565b7f476f616c206e6f742076616c6964617465642079657400000000000000000000600082015250565b60006109646016836108b1565b915061096f8261092e565b602082019050919050565b6000602082019050818103600083015261099381610957565b9050919050565b7f416c72656164792077697468647261776e000000000000000000000000000000600082015250565b60006109d06011836108b1565b91506109db8261099a565b602082019050919050565b600060208201905081810360008301526109ff816109c3565b9050919050565b6000602082019050610a1b6000830184610827565b92915050565b7f4e6f7420617574686f72697a6564000000000000000000000000000000000000600082015250565b6000610a57600e836108b1565b9150610a6282610a21565b602082019050919050565b60006020820190508181036000830152610a8681610a4a565b9050919050565b7f4e6f2061637469766520676f616c000000000000000000000000000000000000600082015250565b6000610ac3600e836108b1565b9150610ace82610a8d565b602082019050919050565b60006020820190508181036000830152610af281610ab6565b9050919050565b7f416c72656164792076616c696461746564000000000000000000000000000000600082015250565b6000610b2f6011836108b1565b9150610b3a82610af9565b602082019050919050565b60006020820190508181036000830152610b5e81610b22565b9050919050565b7f41637469766520676f616c206578697374730000000000000000000000000000600082015250565b6000610b9b6012836108b1565b9150610ba682610b65565b602082019050919050565b60006020820190508181036000830152610bca81610b8e565b9050919050565b7f4d757374207374616b6520455448000000000000000000000000000000000000600082015250565b6000610c07600e836108b1565b9150610c1282610bd1565b602082019050919050565b60006020820190508181036000830152610c3681610bfa565b905091905056fea264697066735822122018ddd2a643906b0fe4c27e8e093d94d09701bf19ac243b089ef7e1e0e72f886264736f6c634300081c0033",
  "linkReferences": {},
  "deployedLinkReferences": {}
}