{
  "_format": "hh-sol-artifact-1",
  "contractName": "BenefitLockAndReleaseNoDeadline",
  "sourceName": "contracts/BenefitLockAndReleaseNoDeadline.sol",
  "abi": [
    {
      "inputs": [],
      "stateMutability": "nonpayable",
      "type": "constructor"
    },
    {
      "anonymous": false,
      "inputs": [
        {
          "indexed": true,
          "internalType": "address",
          "name": "user",
          "type": "address"
        },
        {
          "indexed": false,
          "internalType": "uint256",
          "name": "amount",
          "type": "uint256"
        }
      ],
      "name": "FundsWithdrawn",
      "type": "event"
    },
    {
      "anonymous": false,
      "inputs": [
        {
          "indexed": true,
          "internalType": "address",
          "name": "user",
          "type": "address"
        },
        {
          "indexed": false,
          "internalType": "uint256",
          "name": "amount",
          "type": "uint256"
        },
        {
          "indexed": false,
          "internalType": "uint256",
          "name": "stepGoal",
          "type": "uint256"
        }
      ],
      "name": "GoalStarted",
      "type": "event"
    },
    {
      "anonymous": false,
      "inputs": [
        {
          "indexed": true,
          "internalType": "address",
          "name": "user",
          "type": "address"
        }
      ],
      "name": "GoalValidated",
      "type": "event"
    },
    {
      "inputs": [
        {
          "internalType": "address",
          "name": "user",
          "type": "address"
        }
      ],
      "name": "getGoalStatus",
      "outputs": [
        {
          "internalType": "uint256",
          "name": "amount",
          "type": "uint256"
        },
        {
          "internalType": "uint256",
          "name": "startTime",
          "type": "uint256"
        },
        {
          "internalType": "uint256",
          "name": "stepGoal",
          "type": "uint256"
        },
        {
          "internalType": "bool",
          "name": "validated",
          "type": "bool"
        },
        {
          "internalType": "bool",
          "name": "withdrawn",
          "type": "bool"
        }
      ],
      "stateMutability": "view",
      "type": "function"
    },
    {
      "inputs": [
        {
          "internalType": "address",
          "name": "",
          "type": "address"
        }
      ],
      "name": "goals",
      "outputs": [
        {
          "internalType": "address",
          "name": "user",
          "type": "address"
        },
        {
          "internalType": "uint256",
          "name": "amount",
          "type": "uint256"
        },
        {
          "internalType": "uint256",
          "name": "startTime",
          "type": "uint256"
        },
        {
          "internalType": "uint256",
          "name": "stepGoal",
          "type": "uint256"
        },
        {
          "internalType": "bool",
          "name": "validated",
          "type": "bool"
        },
        {
          "internalType": "bool",
          "name": "withdrawn",
          "type": "bool"
        }
      ],
      "stateMutability": "view",
      "type": "function"
    },
    {
      "inputs": [],
      "name": "owner",
      "outputs": [
        {
          "internalType": "address",
          "name": "",
          "type": "address"
        }
      ],
      "stateMutability": "view",
      "type": "function"
    },
    {
      "inputs": [
        {
          "internalType": "uint256",
          "name": "_stepGoal",
          "type": "uint256"
        }
      ],
      "name": "startGoal",
      "outputs": [],
      "stateMutability": "payable",
      "type": "function"
    },
    {
      "inputs": [
        {
          "internalType": "address",
          "name": "user",
          "type": "address"
        }
      ],
      "name": "validateGoal",
      "outputs": [],
      "stateMutability": "nonpayable",
      "type": "function"
    },
    {
      "inputs": [],
      "name": "withdraw",
      "outputs": [],
      "stateMutability": "nonpayable",
      "type": "function"
    }
  ],
  "bytecode": "0x608060405234801561001057600080fd5b5033600160006101000a81548173ffffffffffffffffffffffffffffffffffffffff021916908373ffffffffffffffffffffffffffffffffffffffff160217905550610fcd806100616000396000f3fe6080604052600436106100555760003560e01c80631a02859f1461005a57806327130b8d1461009c5780633ccfd60b146100b85780636c26a77d146100cf5780638da5cb5b146100f8578063b83c61b114610123575b600080fd5b34801561006657600080fd5b50610081600480360381019061007c91906109de565b610164565b60405161009396959493929190610a4e565b60405180910390f35b6100b660048036038101906100b19190610adb565b6101da565b005b3480156100c457600080fd5b506100cd610466565b005b3480156100db57600080fd5b506100f660048036038101906100f191906109de565b61065b565b005b34801561010457600080fd5b5061010d61082a565b60405161011a9190610b08565b60405180910390f35b34801561012f57600080fd5b5061014a600480360381019061014591906109de565b610850565b60405161015b959493929190610b23565b60405180910390f35b60006020528060005260406000206000915090508060000160009054906101000a900473ffffffffffffffffffffffffffffffffffffffff16908060010154908060020154908060030154908060040160009054906101000a900460ff16908060040160019054906101000a900460ff16905086565b60008060003373ffffffffffffffffffffffffffffffffffffffff1673ffffffffffffffffffffffffffffffffffffffff168152602001908152602001600020600101541461025e576040517f08c379a000000000000000000000000000000000000000000000000000000000815260040161025590610bd3565b60405180910390fd5b600034116102a1576040517f08c379a000000000000000000000000000000000000000000000000000000000815260040161029890610c3f565b60405180910390fd5b600081116102e4576040517f08c379a00000000000000000000000000000000000000000000000000000000081526004016102db90610cab565b60405180910390fd5b6040518060c001604052803373ffffffffffffffffffffffffffffffffffffffff168152602001348152602001428152602001828152602001600015158152602001600015158152506000803373ffffffffffffffffffffffffffffffffffffffff1673ffffffffffffffffffffffffffffffffffffffff16815260200190815260200160002060008201518160000160006101000a81548173ffffffffffffffffffffffffffffffffffffffff021916908373ffffffffffffffffffffffffffffffffffffffff16021790555060208201518160010155604082015181600201556060820151816003015560808201518160040160006101000a81548160ff02191690831515021790555060a08201518160040160016101000a81548160ff0219169083151502179055509050503373ffffffffffffffffffffffffffffffffffffffff167f5e241e5b9dbcb37d28b3a10fb9bed77df0cf930cfda5b73f4a73c28c05c31401348360405161045b929190610ccb565b60405180910390a250565b60008060003373ffffffffffffffffffffffffffffffffffffffff1673ffffffffffffffffffffffffffffffffffffffff168152602001908152602001600020905060008160010154116104ef576040517f08c379a00000000000000000000000000000000000000000000000000000000081526004016104e690610d40565b60405180910390fd5b8060040160009054906101000a900460ff16610540576040517f08c379a000000000000000000000000000000000000000000000000000000000815260040161053790610dac565b60405180910390fd5b8060040160019054906101000a900460ff1615610592576040517f08c379a000000000000000000000000000000000000000000000000000000000815260040161058990610e18565b60405180910390fd5b60018160040160016101000a81548160ff021916908315150217905550600081600101549050600082600101819055503373ffffffffffffffffffffffffffffffffffffffff166108fc829081150290604051600060405180830381858888f19350505050158015610608573d6000803e3d6000fd5b503373ffffffffffffffffffffffffffffffffffffffff167feaff4b37086828766ad3268786972c0cd24259d4c87a80f9d3963a3c3d999b0d8260405161064f9190610e38565b60405180910390a25050565b600160009054906101000a900473ffffffffffffffffffffffffffffffffffffffff1673ffffffffffffffffffffffffffffffffffffffff163373ffffffffffffffffffffffffffffffffffffffff16146106eb576040517f08c379a00000000000000000000000000000000000000000000000000000000081526004016106e290610e9f565b60405180910390fd5b60008060008373ffffffffffffffffffffffffffffffffffffffff1673ffffffffffffffffffffffffffffffffffffffff16815260200190815260200160002090506000816001015411610774576040517f08c379a000000000000000000000000000000000000000000000000000000000815260040161076b90610f0b565b60405180910390fd5b8060040160009054906101000a900460ff16156107c6576040517f08c379a00000000000000000000000000000000000000000000000000000000081526004016107bd90610f77565b60405180910390fd5b60018160040160006101000a81548160ff0219169083151502179055508173ffffffffffffffffffffffffffffffffffffffff167f71473d1653588d19cfe87d11e2f45f203f2752bf8710f06492ccda9672d9a69460405160405180910390a25050565b600160009054906101000a900473ffffffffffffffffffffffffffffffffffffffff1681565b6000806000806000806000808873ffffffffffffffffffffffffffffffffffffffff1673ffffffffffffffffffffffffffffffffffffffff1681526020019081526020016000206040518060c00160405290816000820160009054906101000a900473ffffffffffffffffffffffffffffffffffffffff1673ffffffffffffffffffffffffffffffffffffffff1673ffffffffffffffffffffffffffffffffffffffff1681526020016001820154815260200160028201548152602001600382015481526020016004820160009054906101000a900460ff161515151581526020016004820160019054906101000a900460ff161515151581525050905080602001518160400151826060015183608001518460a00151955095509550955095505091939590929450565b600080fd5b600073ffffffffffffffffffffffffffffffffffffffff82169050919050565b60006109ab82610980565b9050919050565b6109bb816109a0565b81146109c657600080fd5b50565b6000813590506109d8816109b2565b92915050565b6000602082840312156109f4576109f361097b565b5b6000610a02848285016109c9565b91505092915050565b610a14816109a0565b82525050565b6000819050919050565b610a2d81610a1a565b82525050565b60008115159050919050565b610a4881610a33565b82525050565b600060c082019050610a636000830189610a0b565b610a706020830188610a24565b610a7d6040830187610a24565b610a8a6060830186610a24565b610a976080830185610a3f565b610aa460a0830184610a3f565b979650505050505050565b610ab881610a1a565b8114610ac357600080fd5b50565b600081359050610ad581610aaf565b92915050565b600060208284031215610af157610af061097b565b5b6000610aff84828501610ac6565b91505092915050565b6000602082019050610b1d6000830184610a0b565b92915050565b600060a082019050610b386000830188610a24565b610b456020830187610a24565b610b526040830186610a24565b610b5f6060830185610a3f565b610b6c6080830184610a3f565b9695505050505050565b600082825260208201905092915050565b7f41637469766520676f616c206578697374730000000000000000000000000000600082015250565b6000610bbd601283610b76565b9150610bc882610b87565b602082019050919050565b60006020820190508181036000830152610bec81610bb0565b9050919050565b7f4d757374207374616b6520455448000000000000000000000000000000000000600082015250565b6000610c29600e83610b76565b9150610c3482610bf3565b602082019050919050565b60006020820190508181036000830152610c5881610c1c565b9050919050565b7f5374657020676f616c206d75737420626520706f736974697665000000000000600082015250565b6000610c95601a83610b76565b9150610ca082610c5f565b602082019050919050565b60006020820190508181036000830152610cc481610c88565b9050919050565b6000604082019050610ce06000830185610a24565b610ced6020830184610a24565b9392505050565b7f4e6f2066756e6473000000000000000000000000000000000000000000000000600082015250565b6000610d2a600883610b76565b9150610d3582610cf4565b602082019050919050565b60006020820190508181036000830152610d5981610d1d565b9050919050565b7f476f616c206e6f742076616c6964617465642079657400000000000000000000600082015250565b6000610d96601683610b76565b9150610da182610d60565b602082019050919050565b60006020820190508181036000830152610dc581610d89565b9050919050565b7f416c72656164792077697468647261776e000000000000000000000000000000600082015250565b6000610e02601183610b76565b9150610e0d82610dcc565b602082019050919050565b60006020820190508181036000830152610e3181610df5565b9050919050565b6000602082019050610e4d6000830184610a24565b92915050565b7f4e6f7420617574686f72697a6564000000000000000000000000000000000000600082015250565b6000610e89600e83610b76565b9150610e9482610e53565b602082019050919050565b60006020820190508181036000830152610eb881610e7c565b9050919050565b7f4e6f2061637469766520676f616c000000000000000000000000000000000000600082015250565b6000610ef5600e83610b76565b9150610f0082610ebf565b602082019050919050565b60006020820190508181036000830152610f2481610ee8565b9050919050565b7f416c72656164792076616c696461746564000000000000000000000000000000600082015250565b6000610f61601183610b76565b9150610f6c82610f2b565b602082019050919050565b60006020820190508181036000830152610f9081610f54565b905091905056fea2646970667358221220eabc6cf1b70a0003c0b49d1ceacd18755e4f74f091a6205a6fa41a077b8163c964736f6c63430008140033",
  "linkReferences": {},
  "deployedLinkReferences": {}
}